:020000040800F2
:1000000010050020C51B0008191B00081B1B000859
:100010001D1B00081F1B0008211B0008000000001A
:10002000000000000000000000000000231B00088A
:10003000251B000800000000271B0008291B0008E2
:10004000F11B0008F51B0008F91B0008FD1B000848
:10005000011C0008051C0008091C00080D1C0008F4
:10006000111C0008151C0008191C00081D1C0008A4
:10007000211C0008251C0008291C00082D1C000854
:10008000311C0008351C0008391C00083D1C000804
:10009000411C0008451C0008491C00084D1C0008B4
:1000A000511C0008551C0008591C00085D1C000864
:1000B000611C0008651C0008691C00086D1C000814
:1000C000711C0008751C0008791C00087D1C0008C4
:1000D000811C0008851C0008891C00088D1C000874
:1000E000911C0008951C0008991C00089D1C000824
:1000F000A11C0008A51C0008A91C0008AD1C0008D4
:10010000B11C0008B51C0008B91C0008BD1C000883
:10011000C11C0008C51C0008C91C00082D1B0008D4
:10012000CD1C0008D11C0008D51C0008D91C0008F3
:10013000DD1C0008E11C0008E51C0008E91C0008A3
:10014000ED1C0008F11C0008F51C0008F91C000853
:10015000FD1C0008011D0008051D0008091D000800
:100160000D1D0008111D0008151D0008191D0008AF
:100170001D1D0008211D0008251D000800000000AD
:10018000291D00082D1D0008DFF8501500220B68FE
:100190005A620A68526A8242FBD3704730B585B012
:1001A00000F006F8009511200190002003900EE069
:1001B00004460D4614220021684600F0E2BA30B52C
:1001C00085B0FFF7F5FF0095002001900290694689
:1001D00000F0C9FA05B030BD10B5DFF804450221C2
:1001E0002046FFF7DBFF002200F0C5FA44F2506022
:1001F000FFF7CAFF012200F0BEFA1420FFF7C4FF88
:1002000002214FE038B500F014F8DFF8D45400F0C4
:1002100013F840B95020FFF7B7FF00F00DF80028A1
:1002200014BF0124FF2400F007F80028FBD120466A
:1002300032BD00242820A7E70221284600F08ABB0F
:1002400070B50025DFF8986400F011F80028FBD0A5
:10025000FFF7F0FF00F00BF800F05CF800F007F893
:100260000028FBD16D1C082DEEDBE0B270BD022131
:10027000304600F06FBB10B5DFF864440121204622
:10028000FFF78CFF0022012100F076FA4FF4966010
:10029000FFF77AFF0122012100F06EFA1420FFF728
:1002A00073FF01212046BDE8104088E738B5FFF70D
:1002B000C0FFDFF82C540121FFF7BFFF48B95020E1
:1002C000FFF762FF0121FFF7B8FF002814BF0124E8
:1002D000FF240121FFF7B1FF0028FAD1204632BDEB
:1002E00070B50025DFF8F8630121FFF7C1FF002892
:1002F000FAD0FFF79FFF0121FFF7BAFF00F00AF8DD
:100300000121FFF7B5FF0028FAD16D1C082DEBDBAA
:10031000E0B270BD28B90121C5F1070081408C43CE
:1003200070470121C5F1070081400C437047006808
:10033000DFF8B0130968884203D10120DFF8A81361
:10034000087070472DE9F04700F02AFB00F0D9F85B
:1003500000F08CF900F021F900F039F9DFF8904352
:10036000082020610020A060E06040F25160206021
:1003700000F04AF900F058F9D84800F038FBD948A5
:1003800000F06BFBDFF86483404600F0DEFD08B14F
:1003900000F0F5F90221404600F09BFE08B100F0A4
:1003A000EEF9D14E30780128FBD1FFF764FFFFF75B
:1003B0007DFFD0490870FFF793FFCF490870FFF722
:1003C0008FFFCE490870CE4FFFF78AFF3870CD4DB2
:1003D000FFF786FF2870FFF783FFCB490880397845
:1003E000287840EA012000F070F8F2EE040A80EE6E
:1003F000200AC64A322100F06EF8642791FBF3F31D
:1004000007FB13110A2391FBF3F100F056F80A25BC
:1004100091FBF3F305FB131130319171D571BC4998
:1004200081ED000ABB490880DFF8EC9200F040F84B
:10043000FFF7D2FEFFF7E6FEB8490870FFF700FFAE
:10044000B7490870FFF7FCFEB6490870DFF8D8A27C
:10045000FFF7F6FE8AF80000FFF7F2FEB3490870D6
:10046000FFF7EEFEB24908809AF8000000F02DF880
:10047000B04A312100F02FF891FBF3F307FB13177B
:100480000A2197FBF1F100F018F80A2391FBF3F32E
:1004900005FB1315303595710A21D171A64981EDFF
:1004A000000AA649088000F003F80020307078E7C1
:1004B0004B462146404600F093BD30315171FDEE70
:1004C000C00A10EE901AC9B27047014600EE101A29
:1004D000B8EE400A704711702E2151703021917092
:1004E000D170FDEEC00A10EE901AC9B2642391FBE0
:1004F000F3F130311171FDEEC00A10EE901AC9B25D
:10050000704780B592B03022002106A800F039F97A
:1005100000F02CF9002000908948016841F08051DA
:100520000160006800F0805000900098002000906A
:100530008448016841F480410160006800F4804013
:1005400000900098012006904FF480300790022020
:100550000C904FF480000D9004200E9048200F90D6
:10056000022010900720119006A800F0C1FD08B1EC
:1005700000F005F90F200190022002900020039066
:100580004FF4805004900590022101A800F05AFF1A
:1005900008B100F0F4F813B000BD80B553486A49C3
:1005A00001600221416000218160C1604FF460213F
:1005B00001614FF48011416100218161818300F06C
:1005C000D9FB00B100E001BDBDE80140D7E080B536
:1005D0008AB00120089000200590049048F6C000E1
:1005E0000090002001904CF6202002900020039003
:1005F00001200690079069463C4800F036FC08B19F
:1006000000F0BDF80BB000BD1CB50822FFF7D3FD0C
:10061000324C4E482060472060600020A0604FF6BA
:10062000FE70E06000200FE01CB50822FFF7C3FD5C
:100630002C4C4748206041F61F4060600020A060BD
:1006400042F20F70E0608020A061204600F0C2F905
:1006500008B100F094F8002000900190694620460F
:1006600000F095FF08B100F08AF813BD10B586B010
:1006700000F07CF8002000903648016841F08001CD
:100680000160016801F0800100F066F841F00101AD
:100690000160016801F0010100F05EF841F0020123
:1006A0000160006800F00200009000980C4C0022ED
:1006B000062100F061F801200190002002900390D3
:1006C00000F050F8062001900120029000200390D5
:1006D000049000F047F806B010BD00000C000020A8
:1006E00000000240540000200E0100209C00002069
:1006F000C40000200D0100200B0100200C0100208F
:10070000090100200A01002002010020E40000206D
:10071000F000002000010020F4000020080100206B
:10072000060100200701002004010020050100202F
:10073000FE000020DC000020EC000020FC00002077
:10074000403802400070004000640040001000404B
:1007500000140040303802400091009900210091BF
:100760000168704701A9204600F02AB81422002130
:1007700001A800F006B80221204600F0F1B872B6D8
:10078000FEE710B5044610460A460146204600F032
:1007900047FF204610BD0EE002684368024408305F
:1007A0005FEAC37C44BF4B445B1E52F804CB43F862
:1007B00004CB091FF9D150F8041B0029ECD1704774
:1007C000F8B50023012404FA03F50A682A40AA4276
:1007D00040F0B7800D7905F00305012D1EBF0D799E
:1007E00005F00305022D12D1856803265F00BE4087
:1007F000B543CE68BE403543856045689C4025EAD8
:1008000004044D68C5F300159D402C4344600C79E9
:1008100004F00304032C21D0C46803255E00B54016
:10082000AC438D68B5402C43C4600C7904F00304DC
:10083000022C13D1DC0800EB8404246ADD0800EBF1
:1008400085050F269F0007F01C07BE40B4430E69C4
:100850009F0007F01C07BE4034432C620468032548
:100860005E00B540AC430D7905F00305B5402C435F
:1008700004604C6814F4403F63D0002400943A4C68
:10088000256845F480452560246804F4804400947C
:10089000009C364C9D0854F825600F279D0005F0FC
:1008A0000C0507FA05F526EA0505314EB04208BFEA
:1008B000002622D02F4EB04208BF01261DD02E4E5A
:1008C000B04208BF022618D02C4EB04208BF032603
:1008D00013D02B4EB04208BF04260ED0294EB04292
:1008E00008BF052609D0284EB04208BF062604D00E
:1008F000264EB0420CBF072608269F0007F00C07C3
:10090000BE4035439E0844F82650214D00F01EF8A5
:10091000F60248BF14432C601E4D00F017F8B602D3
:1009200048BF14432C601C4D00F010F8B60348BFBC
:1009300014432C60194D00F009F8F60348BF144326
:100940002C605B1C102BFFF43DAFF1BD2C68944371
:100950004E6870470069084018BF0120C0B2704758
:1009600002B90904816170474438024008380140E7
:10097000000002400004024000080240000C024057
:10098000001002400014024000180240001C024007
:10099000083C01400C3C0140043C0140003C01404B
:1009A00080B50B48016841F400710160016841F4B1
:1009B00080610160016841F480710160032000F0F2
:1009C000C2FE002000F0E2FE00F004FF002002BDA5
:1009D000003C024010B5040001D1012010BD94F884
:1009E0003D0018B900F0A2F800F044FF71E090F863
:1009F0003D10012901D001207047022180F83D10EF
:100A00000168DFF80C21914218BFB1F1804F17D077
:100A1000DFF8002191421CBFDFF8FC2091420FD08B
:100A2000DFF8F82091421CBFDFF8F420914207D094
:100A3000DFF8F02091421CBFDFF8EC20914205D195
:100A4000896801F00701062905D00168096841F0AD
:100A50000101006801600020704790F83D100129F5
:100A600001D001207047022180F83D100168C9685B
:100A700041F001010268D1600168DFF894209142E1
:100A800018BFB1F1804F17D0DFF8882091421CBF0A
:100A9000DFF8842091420FD0DFF8802091421CBF04
:100AA000DFF87C20914207D0DFF8782091421CBF0C
:100AB000DFF87420914205D1896801F00701062909
:100AC00005D00168096841F001010068016000205B
:100AD0007047022084F83D00211D206800F0E2F8F4
:100AE000012084F8460084F83E0084F83F0084F832
:100AF000400084F8410084F8420084F8430084F800
:100B0000440084F8450084F83D00002010BD00003A
:100B1000000001400004004000080040000C0040BC
:100B200000040140004001400018004084F83C00EF
:100B30002046704710B5044620680069800718D524
:100B40002068C068800714D56FF002002168086132
:100B5000012020772068806910F0030F204602D022
:100B600000F0C4FE03E000F0C2FE00F098F80020A0
:100B7000207720680069400718D52068C0684007C2
:100B800014D56FF0040021680861022020772068E6
:100B9000806910F4407F204602D000F0A7FE03E0F9
:100BA00000F0A5FE00F07BF80020207720680069A7
:100BB000000718D52068C068000714D56FF008003A
:100BC00021680861042020772068C06910F0030FB5
:100BD000204602D000F08AFE03E000F088FE00F01C
:100BE0005EF80020207720680069C00618D52068CC
:100BF000C068C00614D56FF0100021680861082095
:100C000020772068C06910F4407F204602D000F0B1
:100C10006DFE03E000F06BFE00F041F8002020774D
:100C200020680069C00709D52068C068C00705D5DD
:100C30006FF0010000F02FF8FFF779FB20680069E2
:100C4000000609D52068C068000605D56FF0800051
:100C500000F021F800F04CFE20680069400609D53C
:100C60002068C068400605D56FF0400000F013F81A
:100C700000F03FFE2068006980060BD52068C06840
:100C8000800607D56FF0200000F005F8BDE81040A1
:100C900000F030BE10BD2168086120467047204634
:100CA00000F029BE10B50468274B984218BFB0F178
:100CB000804F0BD0254A90421CBF254A904205D058
:100CC000244A90421CBF244A904210D124F0700460
:100CD0004A681443984218BFB0F1804F1BD01B4A9A
:100CE00090421FBF1A4A90421A4A904213D000F015
:100CF00028F81CBF194A90420DD0194A90421CBFD7
:100D0000184A904207D0184A90421FBF174A904293
:100D1000174A904203D124F44074CA68144324F063
:100D200080044A69144304608A68C2620A68826265
:100D3000984219BF084A9042096901630121416143
:100D400010BD054A90427047000001400004004079
:100D500000080040000C0040000401400040014039
:100D6000004401400048014000180040001C0040C1
:100D70000020004038B5040022D094F8200010B9BB
:100D8000204600F044FD00F016F905462068406852
:100D9000C00705D400F0B0FD401B0B28F6D30DE0D2
:100DA00000F002F900F0A8FD0546206840688007C1
:100DB00008D500F0A1FD401B0B28F6D300F0ECF89D
:100DC000012032BD207E00F04CF80CBF40F08000C6
:100DD00020F0800021680860607E00F042F80CBFBF
:100DE00040F0400020F0400021680860A07E00F044
:100DF00038F80CBF40F0200020F020002168086087
:100E0000E07E00F02EF80CBF20F0100040F0100043
:100E100021680860207F00F024F80CBF40F0080033
:100E200020F0080021680860607F00F01AF80CBF0D
:100E300040F0040020F0040021680860A168E06828
:100E4000014320690143606901436068401E01431A
:100E50002068C16100206062012084F82000002029
:100E600032BD0128206800687047F0B590F8202056
:100E7000012A18BF022A52D1534A106840F00100DB
:100E80001060106820F47C50106010684B6A40EAD3
:100E90000320106001200B7D03F01F0300FA03F311
:100EA0004A4C206898432060C86960B94848056882
:100EB0009D4300F03AF8CE6800F03DF80E68C6EAAF
:100EC0000545C0F84452C86901280CD1404805685E
:100ED0001D4300F02AF80E6800F02DF8CE68C6EA2F
:100EE0000545C0F84452886900283A4805680CBF97
:100EF0009D431D43056008690028374805680CBFFD
:100F00009D431D430560086A012802D12068034300
:100F1000236010684008400010600020F0BD416A66
:100F200041F4802141620120F0BD05602B484D69EC
:100F300000EBC50570474F68C7EA0646C5F8406232
:100F40004D6900EBC5008D68704738B5044694F8CC
:100F5000200001281AD1022084F8200020680068AF
:100F6000400840002168086000F0C6FC0546206883
:100F70004068C00707D500F0BFFC401B0B28F6D324
:100F800000F00AF806E00020606232BD606A40F4BA
:100F900000206062012032BD606A40F4003060626F
:100FA000052084F8200070472068006820F00200C7
:100FB0002168086070472068006840F001002168DF
:100FC000086000F099BC0000006600401C6600400C
:100FD0000C66004004660040146600400064004057
:100FE00030B590F820400568AD68012C18BF022C80
:100FF0005ED115F0E05F57D0C5F30164032C03D335
:10100000416A41F4000156E00125A5401D608B684E
:1010100023B90B68CD6845EA435505E04B688D68F8
:1010200045EAC305CB681D43036803EB0413C3F80B
:1010300080510B69056805EB0415C5F88431097DFD
:1010400001290AD100F03BF8D1F8841141F48071F4
:10105000036803EB0413C3F88411D17993791B045B
:1010600043EA0163517943EA0123117900F026F83C
:10107000C1F88C31D17893781B0443EA016351782D
:1010800043EA0123117800F019F8C1F8883100F023
:1010900016F8D1F8801141F00101006800EB04104E
:1010A000C0F88011002030BD416A41F4001102E017
:1010B000416A41F480214162012030BD0B43016847
:1010C00001EB04117047416A41F480214162012023
:1010D000704790F82020012A18BF022A03D1026825
:1010E0005269114300E0EEE700684161002070475B
:1010F0002DE9FC4104001AD02078C00719D5DFF88B
:101100001C03016801F00C01042909D0006800F0FB
:101110000C00082845D1DFF808030068400240D5DC
:10112000DFF800030068800303D56068002800F042
:101130007081207880071DD5DFF8E002016811F08A
:101140000C0F08D0006800F00C0008285ED1B448ED
:10115000006840025AD4B3480168890703D5E168A2
:10116000012940F05681016821F0F801226941EA25
:10117000C20101602078000778D56069002866D038
:101180000120A949086000F0B7FB0546A7480068A0
:1011900080076BD400F0B0FB401B0328F6D303207C
:1011A0003AE16068B0F5803F01D19E4807E0B0F5B4
:1011B000A02F9C48016806D141F48021016001689C
:1011C00041F4803105E021F480310160016821F4AF
:1011D00080210160606860B100F08EFB0546914897
:1011E00000688003A5D400F087FB401B6528F6D378
:1011F000D5E700F081FB05468A480068800398D552
:1012000000F07AFB401B6528F6D3C8E7E06878B1A8
:1012100001208749086000F06FFB0546814801689E
:101220008907A0D400F068FB401B0328F6D3B6E77B
:101230007F49086000F060FB05467A480068800737
:1012400098D500F059FB401B0328F6D3A7E7764951
:10125000086000F051FB054674480068800705D51A
:1012600000F04AFB401B0328F6D398E7207840079C
:1012700061D500256F4E3068C0000BD4002000906F
:10128000306840F080503060306800F0805000904E
:1012900000980125684F3868C00510D4386840F4BC
:1012A0008070386000F028FB80463868C00506D49E
:1012B00000F022FBA0EB08000328F6D36FE7A0683C
:1012C000012801D15D4806E005285C48016806D187
:1012D00041F004010160016841F0010105E04908A5
:1012E00049000160016821F004010160A06870B14B
:1012F00000F002FB074651480068800716D400F052
:10130000FBFAC01B41F289318842F4D347E700F071
:10131000F3FA074649480068800707D500F0ECFA61
:10132000C01B41F289318842F4D338E71DB13068DF
:1013300020F080503060A06900286CD037480068E9
:1013400000F00C000828A0693FD002282DD13C4DA8
:101350000020286000F0D0FA0746324E3068800145
:1013600005D500F0C9FAC01B0328F7D317E7E069D9
:10137000216A0843616A40EA8110A16A4908491E4E
:1013800040EA0140E16A40EA016025490860012025
:10139000286000F0B1FA0446306880013BD400F0C8
:1013A000ABFA001B0328F7D3F9E6002024490860B4
:1013B00000F0A2FA04461B48006880012BD500F01B
:1013C0009BFA001B0328F6D3E9E6012821D0144834
:1013D000006800F48001E269914202BF00F03F0121
:1013E000226A914201BF47F6C0710140626AB1EBC7
:1013F000821F0ED100F4403101F58031A26A5208FB
:10140000B1EB024F02BF00F07060E16AB0EB016F18
:1014100001D0012000E00020BDE8F681083802403C
:101420000438024000380240800E474274380240BF
:1014300000004742403802400070004070380240CF
:10144000600047422DE9F04104000E465AD0464D57
:1014500000F082F802D200F07EF853D120788007A5
:1014600016D52078400704D500F07BF841F4E05110
:1014700001602078000704D500F073F841F4604162
:1014800001603A490A6822F0F002A06802430A604B
:101490002078C0072ED56068012803D13448006841
:1014A000800306E0022818BF032804D130480068F2
:1014B000800104D426E02E480068800722D52B4FF7
:1014C00039688908606840EA8101396000F014FADF
:1014D0008046386800F00C006168B0EB810F09D0DD
:1014E00000F00AFAA0EB080041F289318842F0D3FB
:1014F00003202EE0286800F00700864204D200F0A6
:101500002AF801D0012024E02078400706D51749A9
:101510000A6822F4E052E06802430A60207800077B
:1015200007D500F01EF821F46041226941EAC201AA
:10153000016000F0E7F90F490C4A1268C2F3031288
:10154000895CC8400C4908600C48006800F01EF92E
:101550000020BDE8F0812E70286800F00700B0423E
:101560007047024801687047003C0240083802405A
:1015700000380240B41B00080400002000000020D6
:101580000268D160002180F83C10002010BD10B529
:1015900090F83C20012A01D1022010BD012280F8E0
:1015A0003C20022280F83D2002685468936824F0B1
:1015B00070040A681443026854600268144CA24222
:1015C00018BFB2F1804F11D0104CA2421CBF114C79
:1015D000A2420BD00C4CA2421CBF0F4CA24205D021
:1015E000084CA2421CBF0D4CA24205D123F080033F
:1015F00049680B4311468B60012180F83D10C1E71B
:101600000000000000400140000C004000040040C9
:1016100000000140000800400004014000180040A4
:1016200062F30F2262F31F42401810F0030308D048
:10163000C91A1FD3DB0748BF00F8012D28BF20F8C7
:10164000022D130030B414461546103928BF20E986
:101650003C00FAD8490728BF20E90C0048BF40F8F1
:10166000042D890028BF20F8022D48BF00F8012D65
:1016700030BC7047C91818BF00F8012DCB0728BF30
:1016800000F8012D70470000384A13684FF6FF013B
:101690000B40000200F4E060184335490843106035
:1016A000704732480068C0F302207047010007D439
:1016B000012200F01F018A402E49400941F82020F4
:1016C0007047020003D409012B4A115470470901E5
:1016D0002A4A00F00F00104400F8041C704710B5AF
:1016E00000F00700C0F10703052B2FBF0F230124D3
:1016F00004FA03F35B1E041D072C34BF0020C01E38
:1017000019408140012303FA00F0401E10400843B5
:1017100010BD10B50446601EB0F1807F0CD2184990
:1017200008600F214FF0FF30FFF7CBFF0020154975
:101730000860072014490860641EB4F1807F80416E
:10174000C043C00F10BD9FE770B504460D46164656
:10175000FFF7A7FF32462946FFF7C1FF01462046A3
:10176000BDE87040ADE7A1E7D3E700000CED00E075
:101770000000FA0500E100E000E400E018ED00E000
:1017800014E000E018E000E010E000E010B50446CE
:101790004FF47A700C490978B0FBF1F00B490968F5
:1017A000B1FBF0F0FFF7E0FF58B9102C09D200228E
:1017B00021464FF0FF30FFF7C7FF054804600020C7
:1017C00010BD012010BD00BF080000200400002053
:1017D0000000002082B0002000903D48016841F4E4
:1017E00080410160006800F4804000900098002073
:1017F00000903848016841F080510160006800F0B5
:10180000805000900098072002B0FFF79CBF10B5F1
:1018100086B004461422002101A8FEF7B2FF20681A
:101820002D49884224D100F04EF841F0007101604A
:10183000006800F000700090009800200090274899
:10184000016841F002010160006800F002000090B0
:1018500000984FF440700190022002900020039005
:10186000032004900920059001A91D48FEF7A8FF58
:1018700006B010BD80B501681A4A91420AD100F045
:1018800022F841F010010160006800F010000090A3
:10189000009801BD08461449884213D100F013F89E
:1018A00041F020010160006800F0200000900098E5
:1018B000002200213720FFF747FF3720BDE8024014
:1018C000FFF751BF01BD002000900248016870473A
:1018D0004438024040380240006400403038024042
:1018E00000040240001000400014004070477047A0
:1018F000704770477047704701480068704700BFE5
:10190000F800002010B51348006800F00C0004280F
:1019100002D0082802D01BE00F4810BD0F4C2268EF
:1019200002F03F02206840022068C0F3881001D511
:10193000094900E00A49A1FB0001002300F012F868
:101940002168C1F30141491C4900B0FBF1F010BD11
:10195000034810BD0838024000127A0004380240E3
:101960000024F400D3BBD9B1B2F5803F5BD2022A88
:101970001ED98C46B1FBF2F102FB11C31B0443EAF2
:101980001043B3FBF2FC02FB1C3380B240EA03437A
:10199000B3FBF2F002FB103240EA0C400023704728
:1019A000022A05D98446B0FBF2F002FB10C2704750
:1019B0004AB105D100F0010249085FEA30007047E2
:1019C00000220023704700F051B80B0002000021F4
:1019D00000207047F7D3002200237047904271EB3C
:1019E000030CF2D370B5B1FA81F4B3FA83F52C1B72
:1019F000A340C4F1200532FA05F63343A2405FF05C
:101A00000046E64002E05B085FEA3202841A71EBAE
:101A1000030524BF204629467641F4D302000B007B
:101A20003000002170BD70B5B1FA81F4B2FA82F5D0
:101A3000C4F120046419B4F12006DAD3B2405FF097
:101A40000044F440002502E052085FEA3303C61A5E
:101A500071EB020E24BF3046714664416D41F3D3F1
:101A600002000B002000290070BD0000704730B458
:101A7000002512E050F8042BD30744BF4A44521EFD
:101A8000091F042942F8045BFAD213468C0744BFAD
:101A900015809B1CC90748BF1D7050F8041B002906
:101AA000E8D130BC7047000010B5074979441831BF
:101AB000064C7C44163404E00A68081D114488472B
:101AC0000146A142F8D110BD2C0000004C000000DE
:101AD0004EF68851CEF20001086840F470000860AC
:101AE000BFF34F8FBFF36F8F4FF00170E1EE100A1D
:101AF000704700007BFFFFFF040100000C00002086
:101B00000000000093ECFFFF0C000000D800000074
:101B10000000002000000000FEE7FEE7FEE7FEE711
:101B2000FEE770477047704700F006B80148FFF7BE
:101B300001B800005400002003480168034A1278ED
:101B400089180160704700BFF800002008000020DD
:101B500000F00DF8002801D0FFF7A6FFAFF30080DA
:101B60000020AFF30080FEF7EDFB00F002F801204B
:101B7000704700F001B800000746384600F002F850
:101B8000FBE7000080B5AFF30080024A1100182087
:101B9000ABBEFBE7260002000548014603B46846D9
:101BA00080F30988AFF30080FFF792FFFFF7D0FFC3
:101BB000A5EDF5FE00000000000000000102030496
:101BC000060708090148804701480047D51B00085F
:101BD000991B00080248016841F4700101607047D8
:101BE00088ED00E0100000000024F4000100000077
:101BF000FFF7FEBFFFF7FEBFFFF7FEBFFFF7FEBF19
:101C0000FFF7FEBFFFF7FEBFFFF7FEBFFFF7FEBF08
:101C1000FFF7FEBFFFF7FEBFFFF7FEBFFFF7FEBFF8
:101C2000FFF7FEBFFFF7FEBFFFF7FEBFFFF7FEBFE8
:101C3000FFF7FEBFFFF7FEBFFFF7FEBFFFF7FEBFD8
:101C4000FFF7FEBFFFF7FEBFFFF7FEBFFFF7FEBFC8
:101C5000FFF7FEBFFFF7FEBFFFF7FEBFFFF7FEBFB8
:101C6000FFF7FEBFFFF7FEBFFFF7FEBFFFF7FEBFA8
:101C7000FFF7FEBFFFF7FEBFFFF7FEBFFFF7FEBF98
:101C8000FFF7FEBFFFF7FEBFFFF7FEBFFFF7FEBF88
:101C9000FFF7FEBFFFF7FEBFFFF7FEBFFFF7FEBF78
:101CA000FFF7FEBFFFF7FEBFFFF7FEBFFFF7FEBF68
:101CB000FFF7FEBFFFF7FEBFFFF7FEBFFFF7FEBF58
:101CC000FFF7FEBFFFF7FEBFFFF7FEBFFFF7FEBF48
:101CD000FFF7FEBFFFF7FEBFFFF7FEBFFFF7FEBF38
:101CE000FFF7FEBFFFF7FEBFFFF7FEBFFFF7FEBF28
:101CF000FFF7FEBFFFF7FEBFFFF7FEBFFFF7FEBF18
:101D0000FFF7FEBFFFF7FEBFFFF7FEBFFFF7FEBF07
:101D1000FFF7FEBFFFF7FEBFFFF7FEBFFFF7FEBFF7
:101D2000FFF7FEBFFFF7FEBFFFF7FEBFFFF7FEBFE7
:0400000508001B993B
:00000001FF
